{
  "contractName": "Crud",
  "abi": [
    {
      "constant": true,
      "inputs": [
        {
          "name": "",
          "type": "uint256"
        }
      ],
      "name": "users",
      "outputs": [
        {
          "name": "id",
          "type": "uint256"
        },
        {
          "name": "name",
          "type": "string"
        }
      ],
      "payable": false,
      "stateMutability": "view",
      "type": "function",
      "signature": "0x365b98b2"
    },
    {
      "constant": true,
      "inputs": [],
      "name": "nextId",
      "outputs": [
        {
          "name": "",
          "type": "uint256"
        }
      ],
      "payable": false,
      "stateMutability": "view",
      "type": "function",
      "signature": "0x61b8ce8c"
    },
    {
      "constant": false,
      "inputs": [
        {
          "name": "name",
          "type": "string"
        }
      ],
      "name": "create",
      "outputs": [],
      "payable": false,
      "stateMutability": "nonpayable",
      "type": "function",
      "signature": "0xb6a46b3b"
    },
    {
      "constant": true,
      "inputs": [
        {
          "name": "id",
          "type": "uint256"
        }
      ],
      "name": "read",
      "outputs": [
        {
          "name": "",
          "type": "uint256"
        },
        {
          "name": "",
          "type": "string"
        }
      ],
      "payable": false,
      "stateMutability": "view",
      "type": "function",
      "signature": "0xed2e5a97"
    },
    {
      "constant": false,
      "inputs": [
        {
          "name": "id",
          "type": "uint256"
        },
        {
          "name": "name",
          "type": "string"
        }
      ],
      "name": "update",
      "outputs": [],
      "payable": false,
      "stateMutability": "nonpayable",
      "type": "function",
      "signature": "0xf745630f"
    },
    {
      "constant": false,
      "inputs": [
        {
          "name": "id",
          "type": "uint256"
        }
      ],
      "name": "destroy",
      "outputs": [],
      "payable": false,
      "stateMutability": "nonpayable",
      "type": "function",
      "signature": "0x9d118770"
    }
  ],
  "bytecode": "0x60806040526001805534801561001457600080fd5b5061092f806100246000396000f3fe608060405260043610610078576000357c0100000000000000000000000000000000000000000000000000000000900463ffffffff168063365b98b21461007d57806361b8ce8c146101385780639d11877014610163578063b6a46b3b1461019e578063ed2e5a9714610266578063f745630f14610321575b600080fd5b34801561008957600080fd5b506100b6600480360360208110156100a057600080fd5b81019080803590602001909291905050506103f3565b6040518083815260200180602001828103825283818151815260200191508051906020019080838360005b838110156100fc5780820151818401526020810190506100e1565b50505050905090810190601f1680156101295780820380516001836020036101000a031916815260200191505b50935050505060405180910390f35b34801561014457600080fd5b5061014d6104be565b6040518082815260200191505060405180910390f35b34801561016f57600080fd5b5061019c6004803603602081101561018657600080fd5b81019080803590602001909291905050506104c4565b005b3480156101aa57600080fd5b50610264600480360360208110156101c157600080fd5b81019080803590602001906401000000008111156101de57600080fd5b8201836020820111156101f057600080fd5b8035906020019184600183028401116401000000008311171561021257600080fd5b91908080601f016020809104026020016040519081016040528093929190818152602001838380828437600081840152601f19601f82011690508083019250505050505050919291929050505061050d565b005b34801561027257600080fd5b5061029f6004803603602081101561028957600080fd5b8101908080359060200190929190505050610590565b6040518083815260200180602001828103825283818151815260200191508051906020019080838360005b838110156102e55780820151818401526020810190506102ca565b50505050905090810190601f1680156103125780820380516001836020036101000a031916815260200191505b50935050505060405180910390f35b34801561032d57600080fd5b506103f16004803603604081101561034457600080fd5b81019080803590602001909291908035906020019064010000000081111561036b57600080fd5b82018360208201111561037d57600080fd5b8035906020019184600183028401116401000000008311171561039f57600080fd5b91908080601f016020809104026020016040519081016040528093929190818152602001838380828437600081840152601f19601f820116905080830192505050505050509192919290505050610688565b005b60008181548110151561040257fe5b9060005260206000209060020201600091509050806000015490806001018054600181600116156101000203166002900480601f0160208091040260200160405190810160405280929190818152602001828054600181600116156101000203166002900480156104b45780601f10610489576101008083540402835291602001916104b4565b820191906000526020600020905b81548152906001019060200180831161049757829003601f168201915b5050505050905082565b60015481565b60006104cf826106cf565b90506000818154811015156104e057fe5b90600052602060002090600202016000808201600090556001820160006105079190610796565b50505050565b60006040805190810160405280600154815260200183815250908060018154018082558091505090600182039060005260206000209060020201600090919290919091506000820151816000015560208201518160010190805190602001906105779291906107de565b5050505060016000815480929190600101919050555050565b60006060600061059f846106cf565b90506000818154811015156105b057fe5b9060005260206000209060020201600001546000828154811015156105d157fe5b9060005260206000209060020201600101808054600181600116156101000203166002900480601f0160208091040260200160405190810160405280929190818152602001828054600181600116156101000203166002900480156106775780601f1061064c57610100808354040283529160200191610677565b820191906000526020600020905b81548152906001019060200180831161065a57829003601f168201915b505050505090509250925050915091565b6000610693836106cf565b9050816000828154811015156106a557fe5b906000526020600020906002020160010190805190602001906106c992919061085e565b50505050565b600080600090505b60008054905081101561072257826000828154811015156106f457fe5b90600052602060002090600202016000015414156107155780915050610791565b80806001019150506106d7565b506040517f08c379a00000000000000000000000000000000000000000000000000000000081526004018080602001828103825260148152602001807f5573657220646f6573206e6f742065786973742100000000000000000000000081525060200191505060405180910390fd5b919050565b50805460018160011615610100020316600290046000825580601f106107bc57506107db565b601f0160209004906000526020600020908101906107da91906108de565b5b50565b828054600181600116156101000203166002900490600052602060002090601f016020900481019282601f1061081f57805160ff191683800117855561084d565b8280016001018555821561084d579182015b8281111561084c578251825591602001919060010190610831565b5b50905061085a91906108de565b5090565b828054600181600116156101000203166002900490600052602060002090601f016020900481019282601f1061089f57805160ff19168380011785556108cd565b828001600101855582156108cd579182015b828111156108cc5782518255916020019190600101906108b1565b5b5090506108da91906108de565b5090565b61090091905b808211156108fc5760008160009055506001016108e4565b5090565b9056fea165627a7a72305820824cd53fc987b170871405095aa7be95777c06662ffe39ba3e1064ce85e3580a0029",
  "source": "pragma solidity ^0.5.0;\n\ncontract Crud {\n  struct User {\n    uint id;\n    string name;\n  }\n  User[] public users;\n  uint public nextId = 1;\n\n  function create(string memory name) public {\n    users.push(User(nextId, name));\n    nextId++;\n  }\n\n  function read(uint id) view public returns(uint, string memory) {\n    uint i = find(id);\n    return(users[i].id, users[i].name);\n  }\n\n  function update(uint id, string memory name) public {\n    uint i = find(id);\n    users[i].name = name;\n  }\n\n  function destroy(uint id) public {\n    uint i = find(id);\n    delete users[i];\n  }\n\n  function find(uint id) view internal returns(uint) {\n    for(uint i = 0; i < users.length; i++) {\n      if(users[i].id == id) {\n        return i;\n      }\n    }\n    revert('User does not exist!');\n  }\n\n}\n",
  "sourcePath": "/Users/sovryn73/Desktop/eattheblocks-pro/dapp-30/day5-crud/frontend/start/contracts/Crud.sol",
  "compiler": {
    "name": "solc",
    "version": "0.5.0+commit.1d4f565a.Emscripten.clang"
  },
  "schemaVersion": "3.0.2",
  "updatedAt": "2020-04-27T02:32:40.541Z",
  "devdoc": {
    "methods": {}
  },
  "userdoc": {
    "methods": {}
  }
}