{
  "contractName": "Treasury",
  "abi": [
    {
      "inputs": [],
      "stateMutability": "nonpayable",
      "type": "constructor"
    },
    {
      "anonymous": false,
      "inputs": [
        {
          "indexed": true,
          "internalType": "address",
          "name": "from",
          "type": "address"
        },
        {
          "indexed": false,
          "internalType": "uint256",
          "name": "amount",
          "type": "uint256"
        }
      ],
      "name": "Deposit",
      "type": "event"
    },
    {
      "anonymous": false,
      "inputs": [
        {
          "indexed": false,
          "internalType": "enum Treasury.State",
          "name": "state",
          "type": "uint8"
        }
      ],
      "name": "StateChanged",
      "type": "event"
    },
    {
      "anonymous": false,
      "inputs": [
        {
          "indexed": true,
          "internalType": "address",
          "name": "to",
          "type": "address"
        },
        {
          "indexed": false,
          "internalType": "uint256",
          "name": "amount",
          "type": "uint256"
        }
      ],
      "name": "Withdrawal",
      "type": "event"
    },
    {
      "inputs": [],
      "name": "currentState",
      "outputs": [
        {
          "internalType": "enum Treasury.State",
          "name": "",
          "type": "uint8"
        }
      ],
      "stateMutability": "view",
      "type": "function"
    },
    {
      "inputs": [],
      "name": "destroy",
      "outputs": [],
      "stateMutability": "nonpayable",
      "type": "function"
    },
    {
      "stateMutability": "payable",
      "type": "receive"
    },
    {
      "inputs": [
        {
          "internalType": "address",
          "name": "payee",
          "type": "address"
        }
      ],
      "name": "addRecipient",
      "outputs": [],
      "stateMutability": "nonpayable",
      "type": "function"
    },
    {
      "inputs": [
        {
          "internalType": "address payable",
          "name": "_address",
          "type": "address"
        },
        {
          "internalType": "uint256",
          "name": "withdraw_amount",
          "type": "uint256"
        }
      ],
      "name": "withdraw",
      "outputs": [],
      "stateMutability": "nonpayable",
      "type": "function"
    },
    {
      "inputs": [],
      "name": "getBalance",
      "outputs": [
        {
          "internalType": "uint256",
          "name": "",
          "type": "uint256"
        }
      ],
      "stateMutability": "view",
      "type": "function"
    },
    {
      "inputs": [
        {
          "internalType": "address",
          "name": "_payee",
          "type": "address"
        }
      ],
      "name": "isApproved",
      "outputs": [
        {
          "internalType": "bool",
          "name": "",
          "type": "bool"
        }
      ],
      "stateMutability": "view",
      "type": "function"
    },
    {
      "inputs": [],
      "name": "pause",
      "outputs": [],
      "stateMutability": "nonpayable",
      "type": "function"
    },
    {
      "inputs": [],
      "name": "resume",
      "outputs": [],
      "stateMutability": "nonpayable",
      "type": "function"
    }
  ],
  "bytecode": "0x608060405234801561001057600080fd5b5060018054600080546001600160a01b031990811673f7f78b7cc383134cd9cae0bc565ef6851027499e178255909116331760ff60a01b19169091556108ca90819061005c90396000f3fe60806040526004361061007f5760003560e01c8063673448dd1161004e578063673448dd1461016857806383197ef0146101af5780638456cb59146101c4578063f3fef3a3146101d9576100bc565b8063046f7da2146100c15780630c3f6acf146100d857806312065fe01461010e5780631c3101d314610135576100bc565b366100bc5760408051348152905133917fe1fffcc4923d04b559f4d29a8bfc6cda04eb5b0d3c460751c2402c5c5cc9109c919081900360200190a2005b600080fd5b3480156100cd57600080fd5b506100d6610212565b005b3480156100e457600080fd5b506100ed6102c9565b604051808260018111156100fd57fe5b815260200191505060405180910390f35b34801561011a57600080fd5b506101236102d9565b60408051918252519081900360200190f35b34801561014157600080fd5b506100d66004803603602081101561015857600080fd5b50356001600160a01b0316610356565b34801561017457600080fd5b5061019b6004803603602081101561018b57600080fd5b50356001600160a01b03166103c3565b604080519115158252519081900360200190f35b3480156101bb57600080fd5b506100d66103e1565b3480156101d057600080fd5b506100d661052d565b3480156101e557600080fd5b506100d6600480360360408110156101fc57600080fd5b506001600160a01b03813516906020013561058e565b6001546001600160a01b0316331461025b5760405162461bcd60e51b815260040180806020018281038252602e815260200180610803602e913960400191505060405180910390fd5b600180546000919060ff60a01b1916600160a01b835b02179055507f551dc40198cc79684bb69e4931dba4ac16e4598792ee1c0a5000aeea366d7bb6600160149054906101000a900460ff16604051808260018111156102b757fe5b815260200191505060405180910390a1565b600154600160a01b900460ff1681565b60008054604080516370a0823160e01b815230600482015290516001600160a01b03909216916370a0823191602480820192602092909190829003018186803b15801561032557600080fd5b505afa158015610339573d6000803e3d6000fd5b505050506040513d602081101561034f57600080fd5b5051905090565b6001546001600160a01b0316331461039f5760405162461bcd60e51b815260040180806020018281038252602e815260200180610803602e913960400191505060405180910390fd5b6001600160a01b03166000908152600260205260409020805460ff19166001179055565b6001600160a01b031660009081526002602052604090205460ff1690565b6001546001600160a01b0316331461042a5760405162461bcd60e51b815260040180806020018281038252602e815260200180610803602e913960400191505060405180910390fd5b600054600154604080516370a0823160e01b815230600482015290516001600160a01b039384169363a9059cbb93169184916370a0823191602480820192602092909190829003018186803b15801561048257600080fd5b505afa158015610496573d6000803e3d6000fd5b505050506040513d60208110156104ac57600080fd5b5051604080516001600160e01b031960e086901b1681526001600160a01b03909316600484015260248301919091525160448083019260209291908290030181600087803b1580156104fd57600080fd5b505af1158015610511573d6000803e3d6000fd5b505050506040513d602081101561052757600080fd5b50339050ff5b6001546001600160a01b031633146105765760405162461bcd60e51b815260040180806020018281038252602e815260200180610803602e913960400191505060405180910390fd5b60018054819060ff60a01b1916600160a01b82610271565b6001546001600160a01b031633146105d75760405162461bcd60e51b815260040180806020018281038252602e815260200180610803602e913960400191505060405180910390fd5b600060018054600160a01b900460ff16908111156105f157fe5b1461062d5760405162461bcd60e51b815260040180806020018281038252602d815260200180610868602d913960400191505060405180910390fd5b600054604080516370a0823160e01b8152306004820152905183926001600160a01b0316916370a08231916024808301926020929190829003018186803b15801561067757600080fd5b505afa15801561068b573d6000803e3d6000fd5b505050506040513d60208110156106a157600080fd5b505110156106e05760405162461bcd60e51b81526004018080602001828103825260378152602001806108316037913960400191505060405180910390fd5b6106e9826103c3565b61073a576040805162461bcd60e51b815260206004820152601d60248201527f50617965652061646472657373206973206e6f7420617070726f766564000000604482015290519081900360640190fd5b6040805182815290516001600160a01b038416917f7fcf532c15f0a6db0bd6d0e038bea71d30d808c7d98cb3bf7268a95bf5081b65919081900360200190a2600080546040805163a9059cbb60e01b81526001600160a01b038681166004830152602482018690529151919092169263a9059cbb92604480820193602093909283900390910190829087803b1580156107d257600080fd5b505af11580156107e6573d6000803e3d6000fd5b505050506040513d60208110156107fc57600080fd5b5050505056fe4f6e6c792074686520636f6e7472616374206f776e65722063616e2063616c6c20746869732066756e6374696f6e496e73756666696369656e742062616c616e636520696e20747265617375727920666f72207769746864726177616c207265717565737443757272656e7420737461746520646f6573206e6f7420737570706f72742074686973206f7065726174696f6ea2646970667358221220a8bac2a7e73dbcf92c378eb171f0eef776ae4e284feb09e427e6c2fc4ae04e7864736f6c634300060c0033",
  "immutableReferences": {},
  "source": "// SPDX-License-Identifier: UNLICENSED\npragma solidity 0.6.12;\n\n// Adding only the ERC-20 function we need\ninterface DaiToken {\n    function transfer(address dst, uint256 wad) external returns (bool);\n\n    function balanceOf(address guy) external view returns (uint256);\n}\n\ncontract Owned {\n    DaiToken daitoken;\n    address owner;\n\n    constructor() public {\n        owner = msg.sender;\n        daitoken = DaiToken(0xF7f78B7cC383134CD9cAE0BC565ef6851027499E);\n    }\n\n    modifier onlyOwner {\n        require(\n            msg.sender == owner,\n            \"Only the contract owner can call this function\"\n        );\n        _;\n    }\n}\n\ncontract Mortal is Owned {\n    // Only owner can shutdown this contract.\n    function destroy() external onlyOwner {\n        daitoken.transfer(owner, daitoken.balanceOf(address(this)));\n        selfdestruct(msg.sender);\n    }\n}\n\ncontract Treasury is Mortal {\n    // Control payment activity\n    enum State {ACTIVE, PAUSED}\n    State public currentState;\n\n    // Approve workers to be paid\n    mapping (address => bool) approved;\n\n    event Withdrawal(address indexed to, uint256 amount);\n    event Deposit(address indexed from, uint256 amount);\n    event StateChanged(State state);\n\n    constructor() public {\n        currentState = State.ACTIVE;\n    }\n\n    // Add approve payee\n    function addRecipient(address payee) external onlyOwner {\n        approved[payee] = true;\n    }\n\n    // Send DAI\n    function withdraw(address payable _address, uint256 withdraw_amount)\n        external\n        onlyOwner\n        inState\n    {\n        require(\n            daitoken.balanceOf(address(this)) >= withdraw_amount,\n            \"Insufficient balance in treasury for withdrawal request\"\n        );\n\n        // Send to approved addresses only\n        require(isApproved(_address), \"Payee address is not approved\");\n\n        // Send the amount to the address that requested it\n        emit Withdrawal(_address, withdraw_amount);\n        daitoken.transfer(_address, withdraw_amount);\n    }\n\n    // get DAI balance\n    function getBalance() external view returns (uint256) {\n        return daitoken.balanceOf(address(this));\n    }\n\n    // Accept any incoming amount\n    receive() external payable {\n        emit Deposit(msg.sender, msg.value);\n    }\n\n    // Check if approved payee\n    function isApproved(address _payee) public view returns (bool) {\n        return approved[_payee];\n    }\n    \n    // pause the contract\n    function pause() external onlyOwner{\n        currentState = State.PAUSED;\n        emit StateChanged(currentState);\n    }\n    \n    // resume the contract\n    function resume() external onlyOwner{\n        currentState = State.ACTIVE;\n        emit StateChanged(currentState);\n    }\n\n    // Check if contract paused or not\n    modifier inState() {\n        require(\n            currentState == State.ACTIVE,\n            \"Current state does not support this operation\"\n        );\n        _;\n    }\n}\n",
  "sourcePath": "/home/b3ast0fb1ts/Downloads/cryptopay/start/contracts/Treasury.sol",
  "compiler": {
    "name": "solc",
    "version": "0.6.12+commit.27d51765.Emscripten.clang"
  },
  "schemaVersion": "3.3.4",
  "updatedAt": "2021-04-10T16:16:06.680Z",
  "devdoc": {
    "kind": "dev",
    "methods": {},
    "version": 1
  },
  "userdoc": {
    "kind": "user",
    "methods": {},
    "version": 1
  }
}