{
  "contractName": "Treasury",
  "abi": [
    {
      "constant": true,
      "inputs": [],
      "name": "currentState",
      "outputs": [
        {
          "name": "",
          "type": "uint8"
        }
      ],
      "payable": false,
      "stateMutability": "view",
      "type": "function"
    },
    {
      "constant": false,
      "inputs": [],
      "name": "destroy",
      "outputs": [],
      "payable": false,
      "stateMutability": "nonpayable",
      "type": "function"
    },
    {
      "constant": true,
      "inputs": [
        {
          "name": "",
          "type": "uint256"
        }
      ],
      "name": "recipients",
      "outputs": [
        {
          "name": "",
          "type": "address"
        }
      ],
      "payable": false,
      "stateMutability": "view",
      "type": "function"
    },
    {
      "inputs": [],
      "payable": false,
      "stateMutability": "nonpayable",
      "type": "constructor"
    },
    {
      "payable": true,
      "stateMutability": "payable",
      "type": "fallback"
    },
    {
      "anonymous": false,
      "inputs": [
        {
          "indexed": true,
          "name": "to",
          "type": "address"
        },
        {
          "indexed": false,
          "name": "amount",
          "type": "uint256"
        }
      ],
      "name": "Withdrawal",
      "type": "event"
    },
    {
      "anonymous": false,
      "inputs": [
        {
          "indexed": true,
          "name": "from",
          "type": "address"
        },
        {
          "indexed": false,
          "name": "amount",
          "type": "uint256"
        }
      ],
      "name": "Deposit",
      "type": "event"
    },
    {
      "constant": false,
      "inputs": [
        {
          "name": "payee",
          "type": "address"
        }
      ],
      "name": "addRecipient",
      "outputs": [],
      "payable": false,
      "stateMutability": "nonpayable",
      "type": "function"
    },
    {
      "constant": false,
      "inputs": [
        {
          "name": "_address",
          "type": "address"
        },
        {
          "name": "withdraw_amount",
          "type": "uint256"
        }
      ],
      "name": "withdraw",
      "outputs": [],
      "payable": false,
      "stateMutability": "nonpayable",
      "type": "function"
    },
    {
      "constant": true,
      "inputs": [],
      "name": "getBalance",
      "outputs": [
        {
          "name": "",
          "type": "uint256"
        }
      ],
      "payable": false,
      "stateMutability": "view",
      "type": "function"
    },
    {
      "constant": true,
      "inputs": [
        {
          "name": "_payee",
          "type": "address"
        }
      ],
      "name": "isApproved",
      "outputs": [
        {
          "name": "",
          "type": "bool"
        }
      ],
      "payable": false,
      "stateMutability": "view",
      "type": "function"
    }
  ],
  "bytecode": "0x608060405234801561001057600080fd5b5033600160006101000a81548173ffffffffffffffffffffffffffffffffffffffff021916908373ffffffffffffffffffffffffffffffffffffffff1602179055507331f42841c2db5173425b5223809cf3a38fede3606000806101000a81548173ffffffffffffffffffffffffffffffffffffffff021916908373ffffffffffffffffffffffffffffffffffffffff1602179055506000600160146101000a81548160ff021916908360018111156100c557fe5b0217905550610e7e806100d96000396000f3fe608060405260043610610083576000357c0100000000000000000000000000000000000000000000000000000000900463ffffffff1680630c3f6acf146100d357806312065fe01461010c5780631c3101d314610137578063673448dd1461018857806383197ef0146101f1578063d1bc76a114610208578063f3fef3a314610283575b3373ffffffffffffffffffffffffffffffffffffffff167fe1fffcc4923d04b559f4d29a8bfc6cda04eb5b0d3c460751c2402c5c5cc9109c346040518082815260200191505060405180910390a2005b3480156100df57600080fd5b506100e86102de565b604051808260018111156100f857fe5b60ff16815260200191505060405180910390f35b34801561011857600080fd5b506101216102f1565b6040518082815260200191505060405180910390f35b34801561014357600080fd5b506101866004803603602081101561015a57600080fd5b81019080803573ffffffffffffffffffffffffffffffffffffffff1690602001909291905050506103ed565b005b34801561019457600080fd5b506101d7600480360360208110156101ab57600080fd5b81019080803573ffffffffffffffffffffffffffffffffffffffff169060200190929190505050610541565b604051808215151515815260200191505060405180910390f35b3480156101fd57600080fd5b506102066105e9565b005b34801561021457600080fd5b506102416004803603602081101561022b57600080fd5b8101908080359060200190929190505050610903565b604051808273ffffffffffffffffffffffffffffffffffffffff1673ffffffffffffffffffffffffffffffffffffffff16815260200191505060405180910390f35b34801561028f57600080fd5b506102dc600480360360408110156102a657600080fd5b81019080803573ffffffffffffffffffffffffffffffffffffffff16906020019092919080359060200190929190505050610941565b005b600160149054906101000a900460ff1681565b60008060009054906101000a900473ffffffffffffffffffffffffffffffffffffffff1673ffffffffffffffffffffffffffffffffffffffff166370a08231306040518263ffffffff167c0100000000000000000000000000000000000000000000000000000000028152600401808273ffffffffffffffffffffffffffffffffffffffff1673ffffffffffffffffffffffffffffffffffffffff16815260200191505060206040518083038186803b1580156103ad57600080fd5b505afa1580156103c1573d6000803e3d6000fd5b505050506040513d60208110156103d757600080fd5b8101908080519060200190929190505050905090565b600160009054906101000a900473ffffffffffffffffffffffffffffffffffffffff1673ffffffffffffffffffffffffffffffffffffffff163373ffffffffffffffffffffffffffffffffffffffff161415156104d8576040517f08c379a000000000000000000000000000000000000000000000000000000000815260040180806020018281038252602e8152602001807f4f6e6c792074686520636f6e7472616374206f776e65722063616e2063616c6c81526020017f20746869732066756e6374696f6e00000000000000000000000000000000000081525060400191505060405180910390fd5b60028190806001815401808255809150509060018203906000526020600020016000909192909190916101000a81548173ffffffffffffffffffffffffffffffffffffffff021916908373ffffffffffffffffffffffffffffffffffffffff1602179055505050565b60008060008090505b6002805490508110156105df5760028181548110151561056657fe5b9060005260206000200160009054906101000a900473ffffffffffffffffffffffffffffffffffffffff1673ffffffffffffffffffffffffffffffffffffffff168473ffffffffffffffffffffffffffffffffffffffff1614156105cd57600191506105d2565b600191505b808060010191505061054a565b5080915050919050565b600160009054906101000a900473ffffffffffffffffffffffffffffffffffffffff1673ffffffffffffffffffffffffffffffffffffffff163373ffffffffffffffffffffffffffffffffffffffff161415156106d4576040517f08c379a000000000000000000000000000000000000000000000000000000000815260040180806020018281038252602e8152602001807f4f6e6c792074686520636f6e7472616374206f776e65722063616e2063616c6c81526020017f20746869732066756e6374696f6e00000000000000000000000000000000000081525060400191505060405180910390fd5b6000809054906101000a900473ffffffffffffffffffffffffffffffffffffffff1673ffffffffffffffffffffffffffffffffffffffff1663a9059cbb600160009054906101000a900473ffffffffffffffffffffffffffffffffffffffff166000809054906101000a900473ffffffffffffffffffffffffffffffffffffffff1673ffffffffffffffffffffffffffffffffffffffff166370a08231306040518263ffffffff167c0100000000000000000000000000000000000000000000000000000000028152600401808273ffffffffffffffffffffffffffffffffffffffff1673ffffffffffffffffffffffffffffffffffffffff16815260200191505060206040518083038186803b1580156107ee57600080fd5b505afa158015610802573d6000803e3d6000fd5b505050506040513d602081101561081857600080fd5b81019080805190602001909291905050506040518363ffffffff167c0100000000000000000000000000000000000000000000000000000000028152600401808373ffffffffffffffffffffffffffffffffffffffff1673ffffffffffffffffffffffffffffffffffffffff16815260200182815260200192505050602060405180830381600087803b1580156108ae57600080fd5b505af11580156108c2573d6000803e3d6000fd5b505050506040513d60208110156108d857600080fd5b8101908080519060200190929190505050503373ffffffffffffffffffffffffffffffffffffffff16ff5b60028181548110151561091257fe5b906000526020600020016000915054906101000a900473ffffffffffffffffffffffffffffffffffffffff1681565b600160009054906101000a900473ffffffffffffffffffffffffffffffffffffffff1673ffffffffffffffffffffffffffffffffffffffff163373ffffffffffffffffffffffffffffffffffffffff16141515610a2c576040517f08c379a000000000000000000000000000000000000000000000000000000000815260040180806020018281038252602e8152602001807f4f6e6c792074686520636f6e7472616374206f776e65722063616e2063616c6c81526020017f20746869732066756e6374696f6e00000000000000000000000000000000000081525060400191505060405180910390fd5b6000806001811115610a3a57fe5b600160149054906101000a900460ff166001811115610a5557fe5b141515610af0576040517f08c379a000000000000000000000000000000000000000000000000000000000815260040180806020018281038252602d8152602001807f43757272656e7420737461746520646f6573206e6f7420737570706f7274207481526020017f686973206f7065726174696f6e0000000000000000000000000000000000000081525060400191505060405180910390fd5b816000809054906101000a900473ffffffffffffffffffffffffffffffffffffffff1673ffffffffffffffffffffffffffffffffffffffff166370a08231306040518263ffffffff167c0100000000000000000000000000000000000000000000000000000000028152600401808273ffffffffffffffffffffffffffffffffffffffff1673ffffffffffffffffffffffffffffffffffffffff16815260200191505060206040518083038186803b158015610bab57600080fd5b505afa158015610bbf573d6000803e3d6000fd5b505050506040513d6020811015610bd557600080fd5b810190808051906020019092919050505010151515610c82576040517f08c379a00000000000000000000000000000000000000000000000000000000081526004018080602001828103825260378152602001807f496e73756666696369656e742062616c616e636520696e20747265617375727981526020017f20666f72207769746864726177616c207265717565737400000000000000000081525060400191505060405180910390fd5b610c8b83610541565b1515610cff576040517f08c379a000000000000000000000000000000000000000000000000000000000815260040180806020018281038252601d8152602001807f50617965652061646472657373206973206e6f7420617070726f76656400000081525060200191505060405180910390fd5b6000809054906101000a900473ffffffffffffffffffffffffffffffffffffffff1673ffffffffffffffffffffffffffffffffffffffff1663a9059cbb84846040518363ffffffff167c0100000000000000000000000000000000000000000000000000000000028152600401808373ffffffffffffffffffffffffffffffffffffffff1673ffffffffffffffffffffffffffffffffffffffff16815260200182815260200192505050602060405180830381600087803b158015610dc357600080fd5b505af1158015610dd7573d6000803e3d6000fd5b505050506040513d6020811015610ded57600080fd5b8101908080519060200190929190505050508273ffffffffffffffffffffffffffffffffffffffff167f7fcf532c15f0a6db0bd6d0e038bea71d30d808c7d98cb3bf7268a95bf5081b65836040518082815260200191505060405180910390a250505056fea165627a7a72305820c4e7a49846a762a7341a86b603c926a6c55f0cbae42b6aad51f9233321f12e7d0029",
  "source": "pragma solidity >=0.4.21 <0.6.0;\n\n\n// Adding only the ERC-20 function we need\ninterface DaiToken {\n    function transfer(address dst, uint256 wad) external returns (bool);\n\n    function balanceOf(address guy) external view returns (uint256);\n}\n\n\ncontract owned {\n    DaiToken daitoken;\n    address owner;\n\n    constructor() public {\n        owner = msg.sender;\n        daitoken = DaiToken(0x31F42841c2db5173425b5223809CF3A38FEde360);\n    }\n\n    modifier onlyOwner {\n        require(\n            msg.sender == owner,\n            \"Only the contract owner can call this function\"\n        );\n        _;\n    }\n}\n\n\ncontract mortal is owned {\n    // Only owner can shutdown this contract.\n    function destroy() public onlyOwner {\n        daitoken.transfer(owner, daitoken.balanceOf(address(this)));\n        selfdestruct(msg.sender);\n    }\n}\n\n\ncontract Treasury is mortal {\n    //Control payment activity\n    enum State {ACTIVE, PAUSED}\n    State public currentState;\n\n    //Approved workers to be paid\n    address payable[] public recipients;\n\n    event Withdrawal(address indexed to, uint256 amount);\n    event Deposit(address indexed from, uint256 amount);\n\n    constructor() public {\n        currentState = State.ACTIVE;\n    }\n\n    //Add approved payee\n    function addRecipient(address payable payee) public onlyOwner {\n        recipients.push(payee);\n    }\n\n    // Send DAI\n    function withdraw(address payable _address, uint256 withdraw_amount)\n        public\n        onlyOwner\n        inState(State.ACTIVE)\n    {\n        require(\n            daitoken.balanceOf(address(this)) >= withdraw_amount,\n            \"Insufficient balance in treasury for withdrawal request\"\n        );\n\n        //Send to approved addresses only\n        require(isApproved(_address), \"Payee address is not approved\");\n\n        // Send the amount to the address that requested it\n        daitoken.transfer(_address, withdraw_amount);\n        emit Withdrawal(_address, withdraw_amount);\n    }\n\n    //get DAI balance\n    function getBalance() public view returns (uint256) {\n        return daitoken.balanceOf(address(this));\n    }\n\n    // Accept any incoming amount\n    function() external payable {\n        emit Deposit(msg.sender, msg.value);\n    }\n\n    //Check if approved payee\n    function isApproved(address _payee) public view returns (bool) {\n        bool result;\n        for (uint256 i = 0; i < recipients.length; i++) {\n            if (_payee == recipients[i]) {\n                result = true;\n            } else {\n                result = true;\n            }\n        }\n        return result;\n    }\n\n    //Check if contract paused or not (not implemented yet)\n    modifier inState(State state) {\n        require(\n            currentState == state,\n            \"Current state does not support this operation\"\n        );\n        _;\n    }\n}\n",
  "sourcePath": "/Users/sovryn73/Desktop/eattheblocks-pro/dapp-30/day5-crud/frontend/start/contracts/Treasury.sol",
  "compiler": {
    "name": "solc",
    "version": "0.5.0+commit.1d4f565a.Emscripten.clang"
  },
  "schemaVersion": "3.0.2",
  "updatedAt": "2020-06-15T18:04:41.321Z",
  "devdoc": {
    "methods": {}
  },
  "userdoc": {
    "methods": {}
  }
}